{
  "_format": "hh-sol-artifact-1",
  "contractName": "SchulzeVoting",
  "sourceName": "contracts/SchulzeVoting.sol",
  "abi": [
    {
      "anonymous": false,
      "inputs": [
        {
          "indexed": false,
          "internalType": "uint8",
          "name": "version",
          "type": "uint8"
        }
      ],
      "name": "Initialized",
      "type": "event"
    },
    {
      "anonymous": false,
      "inputs": [
        {
          "indexed": true,
          "internalType": "address",
          "name": "previousOwner",
          "type": "address"
        },
        {
          "indexed": true,
          "internalType": "address",
          "name": "newOwner",
          "type": "address"
        }
      ],
      "name": "OwnershipTransferred",
      "type": "event"
    },
    {
      "anonymous": false,
      "inputs": [
        {
          "components": [
            {
              "internalType": "uint256",
              "name": "place",
              "type": "uint256"
            },
            {
              "internalType": "uint256[]",
              "name": "candidates",
              "type": "uint256[]"
            }
          ],
          "indexed": false,
          "internalType": "struct Votable.Group[]",
          "name": "winners",
          "type": "tuple[]"
        }
      ],
      "name": "PollClosed",
      "type": "event"
    },
    {
      "inputs": [],
      "name": "closePoll",
      "outputs": [],
      "stateMutability": "nonpayable",
      "type": "function"
    },
    {
      "inputs": [],
      "name": "expire",
      "outputs": [
        {
          "internalType": "uint256",
          "name": "",
          "type": "uint256"
        }
      ],
      "stateMutability": "view",
      "type": "function"
    },
    {
      "inputs": [],
      "name": "finished",
      "outputs": [
        {
          "internalType": "bool",
          "name": "",
          "type": "bool"
        }
      ],
      "stateMutability": "view",
      "type": "function"
    },
    {
      "inputs": [
        {
          "internalType": "string[]",
          "name": "candidates",
          "type": "string[]"
        },
        {
          "internalType": "uint256",
          "name": "newDuration",
          "type": "uint256"
        }
      ],
      "name": "initialize",
      "outputs": [],
      "stateMutability": "nonpayable",
      "type": "function"
    },
    {
      "inputs": [],
      "name": "owner",
      "outputs": [
        {
          "internalType": "address",
          "name": "",
          "type": "address"
        }
      ],
      "stateMutability": "view",
      "type": "function"
    },
    {
      "inputs": [
        {
          "internalType": "uint256[]",
          "name": "ranks",
          "type": "uint256[]"
        }
      ],
      "name": "ranksToGroups",
      "outputs": [
        {
          "components": [
            {
              "internalType": "uint256",
              "name": "place",
              "type": "uint256"
            },
            {
              "internalType": "uint256[]",
              "name": "candidates",
              "type": "uint256[]"
            }
          ],
          "internalType": "struct Votable.Group[]",
          "name": "",
          "type": "tuple[]"
        }
      ],
      "stateMutability": "nonpayable",
      "type": "function"
    },
    {
      "inputs": [],
      "name": "renounceOwnership",
      "outputs": [],
      "stateMutability": "nonpayable",
      "type": "function"
    },
    {
      "inputs": [
        {
          "internalType": "address",
          "name": "newOwner",
          "type": "address"
        }
      ],
      "name": "transferOwnership",
      "outputs": [],
      "stateMutability": "nonpayable",
      "type": "function"
    },
    {
      "inputs": [
        {
          "internalType": "uint256[]",
          "name": "userRanking",
          "type": "uint256[]"
        }
      ],
      "name": "vote",
      "outputs": [],
      "stateMutability": "nonpayable",
      "type": "function"
    },
    {
      "inputs": [],
      "name": "votes",
      "outputs": [
        {
          "internalType": "uint256[]",
          "name": "",
          "type": "uint256[]"
        }
      ],
      "stateMutability": "view",
      "type": "function"
    },
    {
      "inputs": [
        {
          "internalType": "uint256",
          "name": "candidateIndex",
          "type": "uint256"
        }
      ],
      "name": "votesOf",
      "outputs": [
        {
          "internalType": "uint256",
          "name": "",
          "type": "uint256"
        }
      ],
      "stateMutability": "view",
      "type": "function"
    },
    {
      "inputs": [],
      "name": "winners",
      "outputs": [
        {
          "components": [
            {
              "internalType": "uint256",
              "name": "place",
              "type": "uint256"
            },
            {
              "internalType": "uint256[]",
              "name": "candidates",
              "type": "uint256[]"
            }
          ],
          "internalType": "struct Votable.Group[]",
          "name": "",
          "type": "tuple[]"
        }
      ],
      "stateMutability": "view",
      "type": "function"
    }
  ],
  "bytecode": "0x608060405234801561001057600080fd5b50613e33806100206000396000f3fe608060405234801561001057600080fd5b50600436106100b45760003560e01c8063a49a4a8711610071578063a49a4a871461017d578063bef4876b14610199578063ce11f2bb146101b7578063e168c3ec146101d3578063ed8c2aed146101f1578063f2fde38b146101fb576100b4565b80632b136870146100b95780636530735e146100e9578063715018a61461011957806379599f96146101235780638da5cb5b14610141578063a487bcd81461015f575b600080fd5b6100d360048036038101906100ce9190612cb1565b610217565b6040516100e091906131f5565b60405180910390f35b61010360048036038101906100fe9190612cf2565b6107d9565b6040516101109190613411565b60405180910390f35b61012161086e565b005b61012b6108f6565b6040516101389190613411565b60405180910390f35b610149610900565b60405161015691906131da565b60405180910390f35b61016761092a565b60405161017491906131f5565b60405180910390f35b61019760048036038101906101929190612c5d565b610a30565b005b6101a1610ac8565b6040516101ae919061325b565b60405180910390f35b6101d160048036038101906101cc9190612cb1565b610adf565b005b6101db610cfd565b6040516101e89190613239565b60405180910390f35b6101f9610d55565b005b61021560048036038101906102109190612c34565b610e03565b005b606060008251905060008167ffffffffffffffff811115610261577f4e487b7100000000000000000000000000000000000000000000000000000000600052604160045260246000fd5b60405190808252806020026020018201604052801561028f5781602001602082028036833780820191505090505b50905061029a612812565b600060658054905067ffffffffffffffff8111156102e1577f4e487b7100000000000000000000000000000000000000000000000000000000600052604160045260246000fd5b60405190808252806020026020018201604052801561030f5781602001602082028036833780820191505090505b509050600061031e8785610efb565b6000600190508084600001818152505084600081518110610368577f4e487b7100000000000000000000000000000000000000000000000000000000600052603260045260246000fd5b602002602001015183838061037c9061397d565b9450815181106103b5577f4e487b7100000000000000000000000000000000000000000000000000000000600052603260045260246000fd5b6020026020010181815250506000600190505b855181101561059c5781806103dc9061397d565b92505088866001836103ee91906137b0565b81518110610425577f4e487b7100000000000000000000000000000000000000000000000000000000600052603260045260246000fd5b602002602001015181518110610464577f4e487b7100000000000000000000000000000000000000000000000000000000600052603260045260246000fd5b6020026020010151898783815181106104a6577f4e487b7100000000000000000000000000000000000000000000000000000000600052603260045260246000fd5b6020026020010151815181106104e5577f4e487b7100000000000000000000000000000000000000000000000000000000600052603260045260246000fd5b6020026020010151146104f75761059c565b858181518110610530577f4e487b7100000000000000000000000000000000000000000000000000000000600052603260045260246000fd5b60200260200101518484806105449061397d565b95508151811061057d577f4e487b7100000000000000000000000000000000000000000000000000000000600052603260045260246000fd5b60200260200101818152505080806105949061397d565b9150506103c8565b508167ffffffffffffffff8111156105dd577f4e487b7100000000000000000000000000000000000000000000000000000000600052604160045260246000fd5b60405190808252806020026020018201604052801561060b5781602001602082028036833780820191505090505b50846020018190525060005b828110156106bc57838181518110610658577f4e487b7100000000000000000000000000000000000000000000000000000000600052603260045260246000fd5b60200260200101518560200151828151811061069d577f4e487b7100000000000000000000000000000000000000000000000000000000600052603260045260246000fd5b60200260200101818152505080806106b49061397d565b915050610617565b50606784908060018154018082558091505060019003906000526020600020906002020160009091909190915060008201518160000155602082015181600101908051906020019061070f92919061282c565b5050506067805480602002602001604051908101604052809291908181526020016000905b828210156107c8578382906000526020600020906002020160405180604001604052908160008201548152602001600182018054806020026020016040519081016040528092919081815260200182805480156107b057602002820191906000526020600020905b81548152602001906001019080831161079c575b50505050508152505081526020019060010190610734565b505050509650505050505050919050565b60006065805490508210610822576040517f08c379a000000000000000000000000000000000000000000000000000000000815260040161081990613311565b60405180910390fd5b6066828154811061085c577f4e487b7100000000000000000000000000000000000000000000000000000000600052603260045260246000fd5b90600052602060002001549050919050565b610876610fc3565b73ffffffffffffffffffffffffffffffffffffffff16610894610900565b73ffffffffffffffffffffffffffffffffffffffff16146108ea576040517f08c379a00000000000000000000000000000000000000000000000000000000081526004016108e190613371565b60405180910390fd5b6108f46000610fcb565b565b6000606854905090565b6000603360009054906101000a900473ffffffffffffffffffffffffffffffffffffffff16905090565b6060436068541115610971576040517f08c379a0000000000000000000000000000000000000000000000000000000008152600401610968906133f1565b60405180910390fd5b6067805480602002602001604051908101604052809291908181526020016000905b82821015610a2757838290600052602060002090600202016040518060400160405290816000820154815260200160018201805480602002602001604051908101604052809291908181526020018280548015610a0f57602002820191906000526020600020905b8154815260200190600101908083116109fb575b50505050508152505081526020019060010190610993565b50505050905090565b6000610a3c6001611091565b90508015610a60576001600060016101000a81548160ff0219169083151502179055505b610a6a8383611181565b8015610ac35760008060016101000a81548160ff0219169083151502179055507f7f26b83ff96e1f2b6a682f133852f6798a09c465da95921460cefb38474024986001604051610aba9190613276565b60405180910390a15b505050565b6000606960009054906101000a900460ff16905090565b436068541015610b24576040517f08c379a0000000000000000000000000000000000000000000000000000000008152600401610b1b906132f1565b60405180910390fd5b606580549050815114610b6c576040517f08c379a0000000000000000000000000000000000000000000000000000000008152600401610b6390613351565b60405180910390fd5b60005b8151811015610c1257606580549050828281518110610bb7577f4e487b7100000000000000000000000000000000000000000000000000000000600052603260045260246000fd5b602002602001015110610bff576040517f08c379a0000000000000000000000000000000000000000000000000000000008152600401610bf690613311565b60405180910390fd5b8080610c0a9061397d565b915050610b6f565b506000610c2933606a6111a890919063ffffffff16565b90508060000160009054906101000a900460ff1615610ca457610c9f81600101805480602002602001604051908101604052809291908181526020018280548015610c9357602002820191906000526020600020905b815481526020019060010190808311610c7f575b505050505060006111f3565b610cc2565b60018160000160006101000a81548160ff0219169083151502179055505b610ccd8260016111f3565b81816001019080519060200190610ce592919061282c565b5050436068541415610cfa57610cf9610d55565b5b50565b60606066805480602002602001604051908101604052809291908181526020018280548015610d4b57602002820191906000526020600020905b815481526020019060010190808311610d37575b5050505050905090565b606960009054906101000a900460ff1615610da5576040517f08c379a0000000000000000000000000000000000000000000000000000000008152600401610d9c90613291565b60405180910390fd5b6001606960006101000a81548160ff021916908315150217905550610dc86113f2565b507f0de2655689350229b8da3d42d4ef4fa951fae80dc07d54c41504f940fed5664e6067604051610df99190613217565b60405180910390a1565b610e0b610fc3565b73ffffffffffffffffffffffffffffffffffffffff16610e29610900565b73ffffffffffffffffffffffffffffffffffffffff1614610e7f576040517f08c379a0000000000000000000000000000000000000000000000000000000008152600401610e7690613371565b60405180910390fd5b600073ffffffffffffffffffffffffffffffffffffffff168173ffffffffffffffffffffffffffffffffffffffff161415610eef576040517f08c379a0000000000000000000000000000000000000000000000000000000008152600401610ee6906132d1565b60405180910390fd5b610ef881610fcb565b50565b8051825114610f3f576040517f08c379a0000000000000000000000000000000000000000000000000000000008152600401610f36906132b1565b60405180910390fd5b60005b8251811015610fa45780828281518110610f85577f4e487b7100000000000000000000000000000000000000000000000000000000600052603260045260246000fd5b6020026020010181815250508080610f9c9061397d565b915050610f42565b50610fbf8282600060018651610fba91906137b0565b611417565b5050565b600033905090565b6000603360009054906101000a900473ffffffffffffffffffffffffffffffffffffffff16905081603360006101000a81548173ffffffffffffffffffffffffffffffffffffffff021916908373ffffffffffffffffffffffffffffffffffffffff1602179055508173ffffffffffffffffffffffffffffffffffffffff168173ffffffffffffffffffffffffffffffffffffffff167f8be0079c531659141344cd1fd0a4f28419497f9722a3daafe3b4186f6b6457e060405160405180910390a35050565b60008060019054906101000a900460ff16156111085760018260ff161480156110c057506110be30611770565b155b6110ff576040517f08c379a00000000000000000000000000000000000000000000000000000000081526004016110f690613331565b60405180910390fd5b6000905061117c565b8160ff1660008054906101000a900460ff1660ff161061115d576040517f08c379a000000000000000000000000000000000000000000000000000000000815260040161115490613331565b60405180910390fd5b816000806101000a81548160ff021916908360ff160217905550600190505b919050565b611189611793565b6111916117e4565b61119b8282611845565b6111a48261199e565b5050565b60008260020160008373ffffffffffffffffffffffffffffffffffffffff1673ffffffffffffffffffffffffffffffffffffffff168152602001908152602001600020905092915050565b60005b82518110156113ed5760005b83518110156113df578181146113d25783818151811061124b577f4e487b7100000000000000000000000000000000000000000000000000000000600052603260045260246000fd5b602002602001015184838151811061128c577f4e487b7100000000000000000000000000000000000000000000000000000000600052603260045260246000fd5b602002602001015110156113d157821561133a576001609983815481106112dc577f4e487b7100000000000000000000000000000000000000000000000000000000600052603260045260246000fd5b90600052602060002001828154811061131e577f4e487b7100000000000000000000000000000000000000000000000000000000600052603260045260246000fd5b90600052602060002001600082825401925050819055506113d0565b600160998381548110611376577f4e487b7100000000000000000000000000000000000000000000000000000000600052603260045260246000fd5b9060005260206000200182815481106113b8577f4e487b7100000000000000000000000000000000000000000000000000000000600052603260045260246000fd5b90600052602060002001600082825403925050819055505b5b5b8080600101915050611202565b5080806001019150506111f6565b505050565b60006113fc611b60565b61140f57611408611f64565b9050611414565b600190505b90565b600082905060008290506000868660028787611433919061371c565b61143d91906136b2565b8761144891906135c8565b8151811061147f577f4e487b7100000000000000000000000000000000000000000000000000000000600052603260045260246000fd5b6020026020010151815181106114be577f4e487b7100000000000000000000000000000000000000000000000000000000600052603260045260246000fd5b602002602001015190505b81831361173d575b808787858151811061150c577f4e487b7100000000000000000000000000000000000000000000000000000000600052603260045260246000fd5b60200260200101518151811061154b577f4e487b7100000000000000000000000000000000000000000000000000000000600052603260045260246000fd5b6020026020010151111561156c57828061156490613934565b9350506114d1565b5b868683815181106115a7577f4e487b7100000000000000000000000000000000000000000000000000000000600052603260045260246000fd5b6020026020010151815181106115e6577f4e487b7100000000000000000000000000000000000000000000000000000000600052603260045260246000fd5b60200260200101518111156116085781806116009061386e565b92505061156d565b81831361173857858281518110611648577f4e487b7100000000000000000000000000000000000000000000000000000000600052603260045260246000fd5b6020026020010151868481518110611689577f4e487b7100000000000000000000000000000000000000000000000000000000600052603260045260246000fd5b60200260200101518785815181106116ca577f4e487b7100000000000000000000000000000000000000000000000000000000600052603260045260246000fd5b6020026020010188858151811061170a577f4e487b7100000000000000000000000000000000000000000000000000000000600052603260045260246000fd5b6020026020010182815250828152505050828061172690613934565b93505081806117349061386e565b9250505b6114c9565b818512156117525761175187878785611417565b5b838312156117675761176687878587611417565b5b50505050505050565b6000808273ffffffffffffffffffffffffffffffffffffffff163b119050919050565b600060019054906101000a900460ff166117e2576040517f08c379a00000000000000000000000000000000000000000000000000000000081526004016117d9906133d1565b60405180910390fd5b565b600060019054906101000a900460ff16611833576040517f08c379a000000000000000000000000000000000000000000000000000000000815260040161182a906133d1565b60405180910390fd5b61184361183e610fc3565b610fcb565b565b6001825111611889576040517f08c379a0000000000000000000000000000000000000000000000000000000008152600401611880906133b1565b60405180910390fd5b600081116118cc576040517f08c379a00000000000000000000000000000000000000000000000000000000081526004016118c390613391565b60405180910390fd5b81606590805190602001906118e2929190612879565b5080436118ef919061365c565b60688190555060658054905067ffffffffffffffff81111561193a577f4e487b7100000000000000000000000000000000000000000000000000000000600052604160045260246000fd5b6040519080825280602002602001820160405280156119685781602001602082028036833780820191505090505b506066908051906020019061197e92919061282c565b506000606960006101000a81548160ff0219169083151502179055505050565b60018151116119e2576040517f08c379a00000000000000000000000000000000000000000000000000000000081526004016119d9906133b1565b60405180910390fd5b600060658054905090508067ffffffffffffffff811115611a2c577f4e487b7100000000000000000000000000000000000000000000000000000000600052604160045260246000fd5b604051908082528060200260200182016040528015611a5f57816020015b6060815260200190600190039081611a4a5790505b5060999080519060200190611a759291906128d9565b5060005b81811015611b5b578167ffffffffffffffff811115611ac1577f4e487b7100000000000000000000000000000000000000000000000000000000600052604160045260246000fd5b604051908082528060200260200182016040528015611aef5781602001602082028036833780820191505090505b5060998281548110611b2a577f4e487b7100000000000000000000000000000000000000000000000000000000600052603260045260246000fd5b906000526020600020019080519060200190611b4792919061282c565b508080611b539061397d565b915050611a79565b505050565b6000611b6a612812565b600060658054905067ffffffffffffffff811115611bb1577f4e487b7100000000000000000000000000000000000000000000000000000000600052604160045260246000fd5b604051908082528060200260200182016040528015611bdf5781602001602082028036833780820191505090505b5090506000805b609980549050811015611dc8576000805b609980549050811015611d4257808314611d2f5760998181548110611c45577f4e487b7100000000000000000000000000000000000000000000000000000000600052603260045260246000fd5b906000526020600020018381548110611c87577f4e487b7100000000000000000000000000000000000000000000000000000000600052603260045260246000fd5b906000526020600020015460998481548110611ccc577f4e487b7100000000000000000000000000000000000000000000000000000000600052603260045260246000fd5b906000526020600020018281548110611d0e577f4e487b7100000000000000000000000000000000000000000000000000000000600052603260045260246000fd5b90600052602060002001541115611d2e578180611d2a9061397d565b9250505b5b8080611d3a9061397d565b915050611bf7565b506001609980549050611d5591906137b0565b811415611db45781848480611d699061397d565b955081518110611da2577f4e487b7100000000000000000000000000000000000000000000000000000000600052603260045260246000fd5b60200260200101818152505050611dc8565b508080611dc09061397d565b915050611be6565b506000811115611f535760018360000181815250508067ffffffffffffffff811115611e1d577f4e487b7100000000000000000000000000000000000000000000000000000000600052604160045260246000fd5b604051908082528060200260200182016040528015611e4b5781602001602082028036833780820191505090505b50836020018190525060005b81811015611efc57828181518110611e98577f4e487b7100000000000000000000000000000000000000000000000000000000600052603260045260246000fd5b602002602001015184602001518281518110611edd577f4e487b7100000000000000000000000000000000000000000000000000000000600052603260045260246000fd5b6020026020010181815250508080611ef49061397d565b915050611e57565b506067839080600181540180825580915050600190039060005260206000209060020201600090919091909150600082015181600001556020820151816001019080519060200190611f4f92919061282c565b5050505b600060678054905011935050505090565b600080609980549050905060008167ffffffffffffffff811115611fb1577f4e487b7100000000000000000000000000000000000000000000000000000000600052604160045260246000fd5b604051908082528060200260200182016040528015611fe457816020015b6060815260200190600190039081611fcf5790505b50905060005b828110156120b8578267ffffffffffffffff811115612032577f4e487b7100000000000000000000000000000000000000000000000000000000600052604160045260246000fd5b6040519080825280602002602001820160405280156120605781602001602082028036833780820191505090505b5082828151811061209a577f4e487b7100000000000000000000000000000000000000000000000000000000600052603260045260246000fd5b602002602001018190525080806120b09061397d565b915050611fea565b5060005b8281101561231f5760005b8381101561230b578082146122f85760998181548110612110577f4e487b7100000000000000000000000000000000000000000000000000000000600052603260045260246000fd5b906000526020600020018281548110612152577f4e487b7100000000000000000000000000000000000000000000000000000000600052603260045260246000fd5b906000526020600020015460998381548110612197577f4e487b7100000000000000000000000000000000000000000000000000000000600052603260045260246000fd5b9060005260206000200182815481106121d9577f4e487b7100000000000000000000000000000000000000000000000000000000600052603260045260246000fd5b906000526020600020015411156122f75760998281548110612224577f4e487b7100000000000000000000000000000000000000000000000000000000600052603260045260246000fd5b906000526020600020018181548110612266577f4e487b7100000000000000000000000000000000000000000000000000000000600052603260045260246000fd5b90600052602060002001548383815181106122aa577f4e487b7100000000000000000000000000000000000000000000000000000000600052603260045260246000fd5b602002602001015182815181106122ea577f4e487b7100000000000000000000000000000000000000000000000000000000600052603260045260246000fd5b6020026020010181815250505b5b80806123039061397d565b9150506120c7565b5080806123179061397d565b9150506120bc565b5060005b828110156125b25760005b8381101561259e5780821461258b5760005b84811015612589578083141580156123585750808214155b15612576576124f0848381518110612399577f4e487b7100000000000000000000000000000000000000000000000000000000600052603260045260246000fd5b602002602001015182815181106123d9577f4e487b7100000000000000000000000000000000000000000000000000000000600052603260045260246000fd5b60200260200101516124eb86858151811061241d577f4e487b7100000000000000000000000000000000000000000000000000000000600052603260045260246000fd5b6020026020010151868151811061245d577f4e487b7100000000000000000000000000000000000000000000000000000000600052603260045260246000fd5b602002602001015187878151811061249e577f4e487b7100000000000000000000000000000000000000000000000000000000600052603260045260246000fd5b602002602001015185815181106124de577f4e487b7100000000000000000000000000000000000000000000000000000000600052603260045260246000fd5b60200260200101516127df565b6127f8565b848381518110612529577f4e487b7100000000000000000000000000000000000000000000000000000000600052603260045260246000fd5b60200260200101518281518110612569577f4e487b7100000000000000000000000000000000000000000000000000000000600052603260045260246000fd5b6020026020010181815250505b80806125819061397d565b915050612340565b505b80806125969061397d565b91505061232e565b5080806125aa9061397d565b915050612323565b5060008267ffffffffffffffff8111156125f5577f4e487b7100000000000000000000000000000000000000000000000000000000600052604160045260246000fd5b6040519080825280602002602001820160405280156126235781602001602082028036833780820191505090505b50905060005b838110156127ca5760005b848110156127b65780821415801561274b5750838181518110612680577f4e487b7100000000000000000000000000000000000000000000000000000000600052603260045260246000fd5b602002602001015182815181106126c0577f4e487b7100000000000000000000000000000000000000000000000000000000600052603260045260246000fd5b6020026020010151848381518110612701577f4e487b7100000000000000000000000000000000000000000000000000000000600052603260045260246000fd5b60200260200101518281518110612741577f4e487b7100000000000000000000000000000000000000000000000000000000600052603260045260246000fd5b6020026020010151115b156127a357828281518110612789577f4e487b7100000000000000000000000000000000000000000000000000000000600052603260045260246000fd5b60200260200101805180919061279e9061397d565b815250505b80806127ae9061397d565b915050612634565b5080806127c29061397d565b915050612629565b506127d481610217565b506001935050505090565b60008183106127ee57816127f0565b825b905092915050565b600081831015612808578161280a565b825b905092915050565b604051806040016040528060008152602001606081525090565b828054828255906000526020600020908101928215612868579160200282015b8281111561286757825182559160200191906001019061284c565b5b5090506128759190612939565b5090565b8280548282559060005260206000209081019282156128c8579160200282015b828111156128c75782518290805190602001906128b7929190612956565b5091602001919060010190612899565b5b5090506128d591906129dc565b5090565b828054828255906000526020600020908101928215612928579160200282015b8281111561292757825182908051906020019061291792919061282c565b50916020019190600101906128f9565b5b5090506129359190612a00565b5090565b5b8082111561295257600081600090555060010161293a565b5090565b828054612962906138b7565b90600052602060002090601f01602090048101928261298457600085556129cb565b82601f1061299d57805160ff19168380011785556129cb565b828001600101855582156129cb579182015b828111156129ca5782518255916020019190600101906129af565b5b5090506129d89190612939565b5090565b5b808211156129fc57600081816129f39190612a24565b506001016129dd565b5090565b5b80821115612a205760008181612a179190612a64565b50600101612a01565b5090565b508054612a30906138b7565b6000825580601f10612a425750612a61565b601f016020900490600052602060002090810190612a609190612939565b5b50565b5080546000825590600052602060002090810190612a829190612939565b50565b6000612a98612a9384613451565b61342c565b9050808382526020820190508260005b85811015612ad85781358501612abe8882612bf5565b845260208401935060208301925050600181019050612aa8565b5050509392505050565b6000612af5612af08461347d565b61342c565b90508083825260208201905082856020860282011115612b1457600080fd5b60005b85811015612b445781612b2a8882612c1f565b845260208401935060208301925050600181019050612b17565b5050509392505050565b6000612b61612b5c846134a9565b61342c565b905082815260208101848484011115612b7957600080fd5b612b8484828561385f565b509392505050565b600081359050612b9b81613dcf565b92915050565b600082601f830112612bb257600080fd5b8135612bc2848260208601612a85565b91505092915050565b600082601f830112612bdc57600080fd5b8135612bec848260208601612ae2565b91505092915050565b600082601f830112612c0657600080fd5b8135612c16848260208601612b4e565b91505092915050565b600081359050612c2e81613de6565b92915050565b600060208284031215612c4657600080fd5b6000612c5484828501612b8c565b91505092915050565b60008060408385031215612c7057600080fd5b600083013567ffffffffffffffff811115612c8a57600080fd5b612c9685828601612ba1565b9250506020612ca785828601612c1f565b9150509250929050565b600060208284031215612cc357600080fd5b600082013567ffffffffffffffff811115612cdd57600080fd5b612ce984828501612bcb565b91505092915050565b600060208284031215612d0457600080fd5b6000612d1284828501612c1f565b91505092915050565b6000612d278383613136565b905092915050565b6000612d3b8383613173565b905092915050565b6000612d4f83836131bc565b60208301905092915050565b612d64816137ee565b82525050565b6000612d7582613524565b612d7f8185613584565b935083602082028501612d91856134da565b8060005b85811015612dcd5784840389528151612dae8582612d1b565b9450612db983613550565b925060208a01995050600181019050612d95565b50829750879550505050505092915050565b6000612dea8261352f565b612df48185613584565b935083602082028501612e06856134ea565b8060005b85811015612e4157848403895281612e228582612d2f565b9450612e2d8361355d565b925060208a01995050600181019050612e0a565b50829750879550505050505092915050565b6000612e5e8261353a565b612e688185613595565b9350612e73836134ff565b8060005b83811015612ea4578151612e8b8882612d43565b9750612e968361356a565b925050600181019050612e77565b5085935050505092915050565b6000612ebc8261353a565b612ec681856135a6565b9350612ed1836134ff565b8060005b83811015612f02578151612ee98882612d43565b9750612ef48361356a565b925050600181019050612ed5565b5085935050505092915050565b6000612f1a82613545565b612f248185613595565b9350612f2f8361350f565b8060005b83811015612f6757612f4482613a82565b612f4e8882612d43565b9750612f5983613577565b925050600181019050612f33565b5085935050505092915050565b612f7d81613800565b82525050565b612f8c8161384d565b82525050565b6000612f9f601b836135b7565b9150612faa82613ab3565b602082019050919050565b6000612fc26024836135b7565b9150612fcd82613adc565b604082019050919050565b6000612fe56026836135b7565b9150612ff082613b2b565b604082019050919050565b6000613008602a836135b7565b915061301382613b7a565b604082019050919050565b600061302b6018836135b7565b915061303682613bc9565b602082019050919050565b600061304e602e836135b7565b915061305982613bf2565b604082019050919050565b60006130716029836135b7565b915061307c82613c41565b604082019050919050565b60006130946020836135b7565b915061309f82613c90565b602082019050919050565b60006130b76032836135b7565b91506130c282613cb9565b604082019050919050565b60006130da6038836135b7565b91506130e582613d08565b604082019050919050565b60006130fd602b836135b7565b915061310882613d57565b604082019050919050565b6000613120601c836135b7565b915061312b82613da6565b602082019050919050565b600060408301600083015161314e60008601826131bc565b50602083015184820360208601526131668282612e53565b9150508091505092915050565b600060408301600080840154905061318a816138e9565b61319760008701826131bc565b506001840185830360208701526131ae8382612f0f565b925050819250505092915050565b6131c581613836565b82525050565b6131d481613836565b82525050565b60006020820190506131ef6000830184612d5b565b92915050565b6000602082019050818103600083015261320f8184612d6a565b905092915050565b600060208201905081810360008301526132318184612ddf565b905092915050565b600060208201905081810360008301526132538184612eb1565b905092915050565b60006020820190506132706000830184612f74565b92915050565b600060208201905061328b6000830184612f83565b92915050565b600060208201905081810360008301526132aa81612f92565b9050919050565b600060208201905081810360008301526132ca81612fb5565b9050919050565b600060208201905081810360008301526132ea81612fd8565b9050919050565b6000602082019050818103600083015261330a81612ffb565b9050919050565b6000602082019050818103600083015261332a8161301e565b9050919050565b6000602082019050818103600083015261334a81613041565b9050919050565b6000602082019050818103600083015261336a81613064565b9050919050565b6000602082019050818103600083015261338a81613087565b9050919050565b600060208201905081810360008301526133aa816130aa565b9050919050565b600060208201905081810360008301526133ca816130cd565b9050919050565b600060208201905081810360008301526133ea816130f0565b9050919050565b6000602082019050818103600083015261340a81613113565b9050919050565b600060208201905061342660008301846131cb565b92915050565b6000613436613447565b90506134428282613903565b919050565b6000604051905090565b600067ffffffffffffffff82111561346c5761346b613a53565b5b602082029050602081019050919050565b600067ffffffffffffffff82111561349857613497613a53565b5b602082029050602081019050919050565b600067ffffffffffffffff8211156134c4576134c3613a53565b5b6134cd82613a95565b9050602081019050919050565b6000819050602082019050919050565b60008190508160005260206000209050919050565b6000819050602082019050919050565b60008190508160005260206000209050919050565b600081519050919050565b600081549050919050565b600081519050919050565b600081549050919050565b6000602082019050919050565b6000600282019050919050565b6000602082019050919050565b6000600182019050919050565b600082825260208201905092915050565b600082825260208201905092915050565b600082825260208201905092915050565b600082825260208201905092915050565b60006135d38261380c565b91506135de8361380c565b9250817f7fffffffffffffffffffffffffffffffffffffffffffffffffffffffffffffff03831360008312151615613619576136186139c6565b5b817f8000000000000000000000000000000000000000000000000000000000000000038312600083121615613651576136506139c6565b5b828201905092915050565b600061366782613836565b915061367283613836565b9250827fffffffffffffffffffffffffffffffffffffffffffffffffffffffffffffffff038211156136a7576136a66139c6565b5b828201905092915050565b60006136bd8261380c565b91506136c88361380c565b9250826136d8576136d76139f5565b5b600160000383147f800000000000000000000000000000000000000000000000000000000000000083141615613711576137106139c6565b5b828205905092915050565b60006137278261380c565b91506137328361380c565b9250827f80000000000000000000000000000000000000000000000000000000000000000182126000841215161561376d5761376c6139c6565b5b827f7fffffffffffffffffffffffffffffffffffffffffffffffffffffffffffffff0182136000841216156137a5576137a46139c6565b5b828203905092915050565b60006137bb82613836565b91506137c683613836565b9250828210156137d9576137d86139c6565b5b828203905092915050565b6000819050919050565b60006137f982613816565b9050919050565b60008115159050919050565b6000819050919050565b600073ffffffffffffffffffffffffffffffffffffffff82169050919050565b6000819050919050565b600060ff82169050919050565b600061385882613840565b9050919050565b82818337600083830152505050565b60006138798261380c565b91507f80000000000000000000000000000000000000000000000000000000000000008214156138ac576138ab6139c6565b5b600182039050919050565b600060028204905060018216806138cf57607f821691505b602082108114156138e3576138e2613a24565b5b50919050565b60006138fc6138f783613aa6565b6137e4565b9050919050565b61390c82613a95565b810181811067ffffffffffffffff8211171561392b5761392a613a53565b5b80604052505050565b600061393f8261380c565b91507f7fffffffffffffffffffffffffffffffffffffffffffffffffffffffffffffff821415613972576139716139c6565b5b600182019050919050565b600061398882613836565b91507fffffffffffffffffffffffffffffffffffffffffffffffffffffffffffffffff8214156139bb576139ba6139c6565b5b600182019050919050565b7f4e487b7100000000000000000000000000000000000000000000000000000000600052601160045260246000fd5b7f4e487b7100000000000000000000000000000000000000000000000000000000600052601260045260246000fd5b7f4e487b7100000000000000000000000000000000000000000000000000000000600052602260045260246000fd5b7f4e487b7100000000000000000000000000000000000000000000000000000000600052604160045260246000fd5b6000613a8e82546138e9565b9050919050565b6000601f19601f8301169050919050565b60008160001c9050919050565b7f5468697320706f6c6c20697320636c6f73656420616c72656164790000000000600082015250565b7f54686520617272617973206d7573742068617665207468652073616d65206c6560008201527f6e67746800000000000000000000000000000000000000000000000000000000602082015250565b7f4f776e61626c653a206e6577206f776e657220697320746865207a65726f206160008201527f6464726573730000000000000000000000000000000000000000000000000000602082015250565b7f5468697320706f6c6c20697320636c6f7365642e204e6f206d6f726520766f7460008201527f657320616c6c6f77656400000000000000000000000000000000000000000000602082015250565b7f43616e64696461746520646f65736e27742065786973742e0000000000000000600082015250565b7f496e697469616c697a61626c653a20636f6e747261637420697320616c72656160008201527f647920696e697469616c697a6564000000000000000000000000000000000000602082015250565b7f566f74696e67206d7573742062652063617374656420666f7220616c6c20636160008201527f6e646964617465732e0000000000000000000000000000000000000000000000602082015250565b7f4f776e61626c653a2063616c6c6572206973206e6f7420746865206f776e6572600082015250565b7f546865206475726174696f6e206f662074686520706f6c6c206d75737420626560008201527f2067726561746572207468616e207a65726f0000000000000000000000000000602082015250565b7f546865206c697374206f662063616e646964617465732073686f756c6420686160008201527f7665206174206c656173742074776f20656c656d656e74730000000000000000602082015250565b7f496e697469616c697a61626c653a20636f6e7472616374206973206e6f74206960008201527f6e697469616c697a696e67000000000000000000000000000000000000000000602082015250565b7f5468697320706f6c6c206973206e6f7420636c6f736564207965742e00000000600082015250565b613dd8816137ee565b8114613de357600080fd5b50565b613def81613836565b8114613dfa57600080fd5b5056fea26469706673582212208dee5b5a64cb893d5f8b8a919146d295f7e59a2654fb33eb82833f782368336764736f6c63430008030033",
  "linkReferences": {},
  "deployedLinkReferences": {}
}