{
  "_format": "hh-sol-artifact-1",
  "contractName": "Ballot",
  "sourceName": "contracts/Ballot.sol",
  "abi": [
    {
      "anonymous": false,
      "inputs": [
        {
          "indexed": false,
          "internalType": "uint8",
          "name": "version",
          "type": "uint8"
        }
      ],
      "name": "Initialized",
      "type": "event"
    },
    {
      "anonymous": false,
      "inputs": [
        {
          "indexed": true,
          "internalType": "address",
          "name": "previousOwner",
          "type": "address"
        },
        {
          "indexed": true,
          "internalType": "address",
          "name": "newOwner",
          "type": "address"
        }
      ],
      "name": "OwnershipTransferred",
      "type": "event"
    },
    {
      "anonymous": false,
      "inputs": [
        {
          "components": [
            {
              "internalType": "uint256",
              "name": "place",
              "type": "uint256"
            },
            {
              "internalType": "uint256[]",
              "name": "candidates",
              "type": "uint256[]"
            }
          ],
          "indexed": false,
          "internalType": "struct Votable.Group[]",
          "name": "winners",
          "type": "tuple[]"
        }
      ],
      "name": "PollClosed",
      "type": "event"
    },
    {
      "inputs": [],
      "name": "closePoll",
      "outputs": [],
      "stateMutability": "nonpayable",
      "type": "function"
    },
    {
      "inputs": [],
      "name": "expire",
      "outputs": [
        {
          "internalType": "uint256",
          "name": "",
          "type": "uint256"
        }
      ],
      "stateMutability": "view",
      "type": "function"
    },
    {
      "inputs": [],
      "name": "finished",
      "outputs": [
        {
          "internalType": "bool",
          "name": "",
          "type": "bool"
        }
      ],
      "stateMutability": "view",
      "type": "function"
    },
    {
      "inputs": [
        {
          "internalType": "string[]",
          "name": "candidates",
          "type": "string[]"
        },
        {
          "internalType": "uint256",
          "name": "newDuration",
          "type": "uint256"
        }
      ],
      "name": "initialize",
      "outputs": [],
      "stateMutability": "nonpayable",
      "type": "function"
    },
    {
      "inputs": [],
      "name": "owner",
      "outputs": [
        {
          "internalType": "address",
          "name": "",
          "type": "address"
        }
      ],
      "stateMutability": "view",
      "type": "function"
    },
    {
      "inputs": [],
      "name": "renounceOwnership",
      "outputs": [],
      "stateMutability": "nonpayable",
      "type": "function"
    },
    {
      "inputs": [
        {
          "internalType": "address",
          "name": "newOwner",
          "type": "address"
        }
      ],
      "name": "transferOwnership",
      "outputs": [],
      "stateMutability": "nonpayable",
      "type": "function"
    },
    {
      "inputs": [
        {
          "internalType": "uint256[]",
          "name": "ranking",
          "type": "uint256[]"
        }
      ],
      "name": "vote",
      "outputs": [],
      "stateMutability": "nonpayable",
      "type": "function"
    },
    {
      "inputs": [],
      "name": "votes",
      "outputs": [
        {
          "internalType": "uint256[]",
          "name": "",
          "type": "uint256[]"
        }
      ],
      "stateMutability": "view",
      "type": "function"
    },
    {
      "inputs": [
        {
          "internalType": "uint256",
          "name": "candidateIndex",
          "type": "uint256"
        }
      ],
      "name": "votesOf",
      "outputs": [
        {
          "internalType": "uint256",
          "name": "",
          "type": "uint256"
        }
      ],
      "stateMutability": "view",
      "type": "function"
    },
    {
      "inputs": [],
      "name": "winners",
      "outputs": [
        {
          "components": [
            {
              "internalType": "uint256",
              "name": "place",
              "type": "uint256"
            },
            {
              "internalType": "uint256[]",
              "name": "candidates",
              "type": "uint256[]"
            }
          ],
          "internalType": "struct Votable.Group[]",
          "name": "",
          "type": "tuple[]"
        }
      ],
      "stateMutability": "view",
      "type": "function"
    }
  ],
  "bytecode": "0x608060405234801561001057600080fd5b50612d54806100206000396000f3fe608060405234801561001057600080fd5b50600436106100a95760003560e01c8063a49a4a8711610071578063a49a4a8714610142578063bef4876b1461015e578063ce11f2bb1461017c578063e168c3ec14610198578063ed8c2aed146101b6578063f2fde38b146101c0576100a9565b80636530735e146100ae578063715018a6146100de57806379599f96146100e85780638da5cb5b14610106578063a487bcd814610124575b600080fd5b6100c860048036038101906100c39190611c13565b6101dc565b6040516100d59190612332565b60405180910390f35b6100e6610271565b005b6100f06102f9565b6040516100fd9190612332565b60405180910390f35b61010e610303565b60405161011b91906120fb565b60405180910390f35b61012c61032d565b6040516101399190612116565b60405180910390f35b61015c60048036038101906101579190611b7e565b610433565b005b6101666104cb565b604051610173919061217c565b60405180910390f35b61019660048036038101906101919190611bd2565b6104e2565b005b6101a06107c7565b6040516101ad919061215a565b60405180910390f35b6101be61081f565b005b6101da60048036038101906101d59190611b55565b6108cd565b005b60006065805490508210610225576040517f08c379a000000000000000000000000000000000000000000000000000000000815260040161021c90612252565b60405180910390fd5b6066828154811061025f577f4e487b7100000000000000000000000000000000000000000000000000000000600052603260045260246000fd5b90600052602060002001549050919050565b6102796109c5565b73ffffffffffffffffffffffffffffffffffffffff16610297610303565b73ffffffffffffffffffffffffffffffffffffffff16146102ed576040517f08c379a00000000000000000000000000000000000000000000000000000000081526004016102e490612292565b60405180910390fd5b6102f760006109cd565b565b6000606854905090565b6000603360009054906101000a900473ffffffffffffffffffffffffffffffffffffffff16905090565b6060436068541115610374576040517f08c379a000000000000000000000000000000000000000000000000000000000815260040161036b90612312565b60405180910390fd5b6067805480602002602001604051908101604052809291908181526020016000905b8282101561042a5783829060005260206000209060020201604051806040016040529081600082015481526020016001820180548060200260200160405190810160405280929190818152602001828054801561041257602002820191906000526020600020905b8154815260200190600101908083116103fe575b50505050508152505081526020019060010190610396565b50505050905090565b600061043f6001610a93565b90508015610463576001600060016101000a81548160ff0219169083151502179055505b61046d8383610b83565b80156104c65760008060016101000a81548160ff0219169083151502179055507f7f26b83ff96e1f2b6a682f133852f6798a09c465da95921460cefb384740249860016040516104bd9190612197565b60405180910390a15b505050565b6000606960009054906101000a900460ff16905090565b436068541015610527576040517f08c379a000000000000000000000000000000000000000000000000000000000815260040161051e90612232565b60405180910390fd5b600181511461056b576040517f08c379a000000000000000000000000000000000000000000000000000000000815260040161056290612212565b60405180910390fd5b6000816000815181106105a7577f4e487b7100000000000000000000000000000000000000000000000000000000600052603260045260246000fd5b6020026020010151905060658054905081106105f8576040517f08c379a00000000000000000000000000000000000000000000000000000000081526004016105ef90612252565b60405180910390fd5b600061060e33606a610ba190919063ffffffff16565b90508060000160009054906101000a900460ff1661069c5760668281548110610660577f4e487b7100000000000000000000000000000000000000000000000000000000600052603260045260246000fd5b906000526020600020016000815480929190600101919050555060018160000160006101000a81548160ff02191690831515021790555061078d565b6066816001016000815481106106db577f4e487b7100000000000000000000000000000000000000000000000000000000600052603260045260246000fd5b90600052602060002001548154811061071d577f4e487b7100000000000000000000000000000000000000000000000000000000600052603260045260246000fd5b90600052602060002001600081548092919060019003919050555060668281548110610772577f4e487b7100000000000000000000000000000000000000000000000000000000600052603260045260246000fd5b90600052602060002001600081548092919060010191905055505b604051806020016040528083815250816001019060016107ae92919061178b565b5050504360685414156107c4576107c361081f565b5b50565b6060606680548060200260200160405190810160405280929190818152602001828054801561081557602002820191906000526020600020905b815481526020019060010190808311610801575b5050505050905090565b606960009054906101000a900460ff161561086f576040517f08c379a0000000000000000000000000000000000000000000000000000000008152600401610866906121b2565b60405180910390fd5b6001606960006101000a81548160ff021916908315150217905550610892610bec565b507f0de2655689350229b8da3d42d4ef4fa951fae80dc07d54c41504f940fed5664e60676040516108c39190612138565b60405180910390a1565b6108d56109c5565b73ffffffffffffffffffffffffffffffffffffffff166108f3610303565b73ffffffffffffffffffffffffffffffffffffffff1614610949576040517f08c379a000000000000000000000000000000000000000000000000000000000815260040161094090612292565b60405180910390fd5b600073ffffffffffffffffffffffffffffffffffffffff168173ffffffffffffffffffffffffffffffffffffffff1614156109b9576040517f08c379a00000000000000000000000000000000000000000000000000000000081526004016109b0906121f2565b60405180910390fd5b6109c2816109cd565b50565b600033905090565b6000603360009054906101000a900473ffffffffffffffffffffffffffffffffffffffff16905081603360006101000a81548173ffffffffffffffffffffffffffffffffffffffff021916908373ffffffffffffffffffffffffffffffffffffffff1602179055508173ffffffffffffffffffffffffffffffffffffffff168173ffffffffffffffffffffffffffffffffffffffff167f8be0079c531659141344cd1fd0a4f28419497f9722a3daafe3b4186f6b6457e060405160405180910390a35050565b60008060019054906101000a900460ff1615610b0a5760018260ff16148015610ac25750610ac0306110b8565b155b610b01576040517f08c379a0000000000000000000000000000000000000000000000000000000008152600401610af890612272565b60405180910390fd5b60009050610b7e565b8160ff1660008054906101000a900460ff1660ff1610610b5f576040517f08c379a0000000000000000000000000000000000000000000000000000000008152600401610b5690612272565b60405180910390fd5b816000806101000a81548160ff021916908360ff160217905550600190505b919050565b610b8b6110db565b610b9361112c565b610b9d828261118d565b5050565b60008260020160008373ffffffffffffffffffffffffffffffffffffffff1673ffffffffffffffffffffffffffffffffffffffff168152602001908152602001600020905092915050565b600080610bf76112e6565b1415610c0657600090506110b5565b600060668054905067ffffffffffffffff811115610c4d577f4e487b7100000000000000000000000000000000000000000000000000000000600052604160045260246000fd5b604051908082528060200260200182016040528015610c7b5781602001602082028036833780820191505090505b509050610cd86066805480602002602001604051908101604052809291908181526020018280548015610ccd57602002820191906000526020600020905b815481526020019060010190808311610cb9575b50505050508261136a565b6000606682600081518110610d16577f4e487b7100000000000000000000000000000000000000000000000000000000600052603260045260246000fd5b602002602001015181548110610d55577f4e487b7100000000000000000000000000000000000000000000000000000000600052603260045260246000fd5b90600052602060002001549050600060658054905067ffffffffffffffff811115610da9577f4e487b7100000000000000000000000000000000000000000000000000000000600052604160045260246000fd5b604051908082528060200260200182016040528015610dd75781602001602082028036833780820191505090505b5090506000805b8451811015610f2257836066868381518110610e23577f4e487b7100000000000000000000000000000000000000000000000000000000600052603260045260246000fd5b602002602001015181548110610e62577f4e487b7100000000000000000000000000000000000000000000000000000000600052603260045260246000fd5b90600052602060002001541415610f0a57848181518110610eac577f4e487b7100000000000000000000000000000000000000000000000000000000600052603260045260246000fd5b6020026020010151838380610ec09061289e565b945081518110610ef9577f4e487b7100000000000000000000000000000000000000000000000000000000600052603260045260246000fd5b602002602001018181525050610f0f565b610f22565b8080610f1a9061289e565b915050610dde565b50610f2b6117d8565b60018160000181815250508167ffffffffffffffff811115610f76577f4e487b7100000000000000000000000000000000000000000000000000000000600052604160045260246000fd5b604051908082528060200260200182016040528015610fa45781602001602082028036833780820191505090505b50816020018190525060005b8281101561105557838181518110610ff1577f4e487b7100000000000000000000000000000000000000000000000000000000600052603260045260246000fd5b602002602001015182602001518281518110611036577f4e487b7100000000000000000000000000000000000000000000000000000000600052603260045260246000fd5b602002602001018181525050808061104d9061289e565b915050610fb0565b5060678190806001815401808255809150506001900390600052602060002090600202016000909190919091506000820151816000015560208201518160010190805190602001906110a89291906117f2565b5050506001955050505050505b90565b6000808273ffffffffffffffffffffffffffffffffffffffff163b119050919050565b600060019054906101000a900460ff1661112a576040517f08c379a0000000000000000000000000000000000000000000000000000000008152600401611121906122f2565b60405180910390fd5b565b600060019054906101000a900460ff1661117b576040517f08c379a0000000000000000000000000000000000000000000000000000000008152600401611172906122f2565b60405180910390fd5b61118b6111866109c5565b6109cd565b565b60018251116111d1576040517f08c379a00000000000000000000000000000000000000000000000000000000081526004016111c8906122d2565b60405180910390fd5b60008111611214576040517f08c379a000000000000000000000000000000000000000000000000000000000815260040161120b906122b2565b60405180910390fd5b816065908051906020019061122a92919061183f565b508043611237919061257d565b60688190555060658054905067ffffffffffffffff811115611282577f4e487b7100000000000000000000000000000000000000000000000000000000600052604160045260246000fd5b6040519080825280602002602001820160405280156112b05781602001602082028036833780820191505090505b50606690805190602001906112c69291906117f2565b506000606960006101000a81548160ff0219169083151502179055505050565b6000806000905060005b6066805490508110156113625760668181548110611337577f4e487b7100000000000000000000000000000000000000000000000000000000600052603260045260246000fd5b90600052602060002001548261134d919061257d565b9150808061135a9061289e565b9150506112f0565b508091505090565b80518251146113ae576040517f08c379a00000000000000000000000000000000000000000000000000000000081526004016113a5906121d2565b60405180910390fd5b60005b825181101561141357808282815181106113f4577f4e487b7100000000000000000000000000000000000000000000000000000000600052603260045260246000fd5b602002602001018181525050808061140b9061289e565b9150506113b1565b5061142e828260006001865161142991906126d1565b611432565b5050565b60008290506000829050600086866002878761144e919061263d565b61145891906125d3565b8761146391906124e9565b8151811061149a577f4e487b7100000000000000000000000000000000000000000000000000000000600052603260045260246000fd5b6020026020010151815181106114d9577f4e487b7100000000000000000000000000000000000000000000000000000000600052603260045260246000fd5b602002602001015190505b818313611758575b8087878581518110611527577f4e487b7100000000000000000000000000000000000000000000000000000000600052603260045260246000fd5b602002602001015181518110611566577f4e487b7100000000000000000000000000000000000000000000000000000000600052603260045260246000fd5b6020026020010151111561158757828061157f90612855565b9350506114ec565b5b868683815181106115c2577f4e487b7100000000000000000000000000000000000000000000000000000000600052603260045260246000fd5b602002602001015181518110611601577f4e487b7100000000000000000000000000000000000000000000000000000000600052603260045260246000fd5b602002602001015181111561162357818061161b9061278f565b925050611588565b81831361175357858281518110611663577f4e487b7100000000000000000000000000000000000000000000000000000000600052603260045260246000fd5b60200260200101518684815181106116a4577f4e487b7100000000000000000000000000000000000000000000000000000000600052603260045260246000fd5b60200260200101518785815181106116e5577f4e487b7100000000000000000000000000000000000000000000000000000000600052603260045260246000fd5b60200260200101888581518110611725577f4e487b7100000000000000000000000000000000000000000000000000000000600052603260045260246000fd5b6020026020010182815250828152505050828061174190612855565b935050818061174f9061278f565b9250505b6114e4565b8185121561176d5761176c87878785611432565b5b838312156117825761178187878587611432565b5b50505050505050565b8280548282559060005260206000209081019282156117c7579160200282015b828111156117c65782518255916020019190600101906117ab565b5b5090506117d4919061189f565b5090565b604051806040016040528060008152602001606081525090565b82805482825590600052602060002090810192821561182e579160200282015b8281111561182d578251825591602001919060010190611812565b5b50905061183b919061189f565b5090565b82805482825590600052602060002090810192821561188e579160200282015b8281111561188d57825182908051906020019061187d9291906118bc565b509160200191906001019061185f565b5b50905061189b9190611942565b5090565b5b808211156118b85760008160009055506001016118a0565b5090565b8280546118c8906127d8565b90600052602060002090601f0160209004810192826118ea5760008555611931565b82601f1061190357805160ff1916838001178555611931565b82800160010185558215611931579182015b82811115611930578251825591602001919060010190611915565b5b50905061193e919061189f565b5090565b5b8082111561196257600081816119599190611966565b50600101611943565b5090565b508054611972906127d8565b6000825580601f1061198457506119a3565b601f0160209004906000526020600020908101906119a2919061189f565b5b50565b60006119b96119b484612372565b61234d565b9050808382526020820190508260005b858110156119f957813585016119df8882611b16565b8452602084019350602083019250506001810190506119c9565b5050509392505050565b6000611a16611a118461239e565b61234d565b90508083825260208201905082856020860282011115611a3557600080fd5b60005b85811015611a655781611a4b8882611b40565b845260208401935060208301925050600181019050611a38565b5050509392505050565b6000611a82611a7d846123ca565b61234d565b905082815260208101848484011115611a9a57600080fd5b611aa5848285612780565b509392505050565b600081359050611abc81612cf0565b92915050565b600082601f830112611ad357600080fd5b8135611ae38482602086016119a6565b91505092915050565b600082601f830112611afd57600080fd5b8135611b0d848260208601611a03565b91505092915050565b600082601f830112611b2757600080fd5b8135611b37848260208601611a6f565b91505092915050565b600081359050611b4f81612d07565b92915050565b600060208284031215611b6757600080fd5b6000611b7584828501611aad565b91505092915050565b60008060408385031215611b9157600080fd5b600083013567ffffffffffffffff811115611bab57600080fd5b611bb785828601611ac2565b9250506020611bc885828601611b40565b9150509250929050565b600060208284031215611be457600080fd5b600082013567ffffffffffffffff811115611bfe57600080fd5b611c0a84828501611aec565b91505092915050565b600060208284031215611c2557600080fd5b6000611c3384828501611b40565b91505092915050565b6000611c488383612057565b905092915050565b6000611c5c8383612094565b905092915050565b6000611c7083836120dd565b60208301905092915050565b611c858161270f565b82525050565b6000611c9682612445565b611ca081856124a5565b935083602082028501611cb2856123fb565b8060005b85811015611cee5784840389528151611ccf8582611c3c565b9450611cda83612471565b925060208a01995050600181019050611cb6565b50829750879550505050505092915050565b6000611d0b82612450565b611d1581856124a5565b935083602082028501611d278561240b565b8060005b85811015611d6257848403895281611d438582611c50565b9450611d4e8361247e565b925060208a01995050600181019050611d2b565b50829750879550505050505092915050565b6000611d7f8261245b565b611d8981856124b6565b9350611d9483612420565b8060005b83811015611dc5578151611dac8882611c64565b9750611db78361248b565b925050600181019050611d98565b5085935050505092915050565b6000611ddd8261245b565b611de781856124c7565b9350611df283612420565b8060005b83811015611e23578151611e0a8882611c64565b9750611e158361248b565b925050600181019050611df6565b5085935050505092915050565b6000611e3b82612466565b611e4581856124b6565b9350611e5083612430565b8060005b83811015611e8857611e65826129a3565b611e6f8882611c64565b9750611e7a83612498565b925050600181019050611e54565b5085935050505092915050565b611e9e81612721565b82525050565b611ead8161276e565b82525050565b6000611ec0601b836124d8565b9150611ecb826129d4565b602082019050919050565b6000611ee36024836124d8565b9150611eee826129fd565b604082019050919050565b6000611f066026836124d8565b9150611f1182612a4c565b604082019050919050565b6000611f296026836124d8565b9150611f3482612a9b565b604082019050919050565b6000611f4c602a836124d8565b9150611f5782612aea565b604082019050919050565b6000611f6f6018836124d8565b9150611f7a82612b39565b602082019050919050565b6000611f92602e836124d8565b9150611f9d82612b62565b604082019050919050565b6000611fb56020836124d8565b9150611fc082612bb1565b602082019050919050565b6000611fd86032836124d8565b9150611fe382612bda565b604082019050919050565b6000611ffb6038836124d8565b915061200682612c29565b604082019050919050565b600061201e602b836124d8565b915061202982612c78565b604082019050919050565b6000612041601c836124d8565b915061204c82612cc7565b602082019050919050565b600060408301600083015161206f60008601826120dd565b50602083015184820360208601526120878282611d74565b9150508091505092915050565b60006040830160008084015490506120ab8161280a565b6120b860008701826120dd565b506001840185830360208701526120cf8382611e30565b925050819250505092915050565b6120e681612757565b82525050565b6120f581612757565b82525050565b60006020820190506121106000830184611c7c565b92915050565b600060208201905081810360008301526121308184611c8b565b905092915050565b600060208201905081810360008301526121528184611d00565b905092915050565b600060208201905081810360008301526121748184611dd2565b905092915050565b60006020820190506121916000830184611e95565b92915050565b60006020820190506121ac6000830184611ea4565b92915050565b600060208201905081810360008301526121cb81611eb3565b9050919050565b600060208201905081810360008301526121eb81611ed6565b9050919050565b6000602082019050818103600083015261220b81611ef9565b9050919050565b6000602082019050818103600083015261222b81611f1c565b9050919050565b6000602082019050818103600083015261224b81611f3f565b9050919050565b6000602082019050818103600083015261226b81611f62565b9050919050565b6000602082019050818103600083015261228b81611f85565b9050919050565b600060208201905081810360008301526122ab81611fa8565b9050919050565b600060208201905081810360008301526122cb81611fcb565b9050919050565b600060208201905081810360008301526122eb81611fee565b9050919050565b6000602082019050818103600083015261230b81612011565b9050919050565b6000602082019050818103600083015261232b81612034565b9050919050565b600060208201905061234760008301846120ec565b92915050565b6000612357612368565b90506123638282612824565b919050565b6000604051905090565b600067ffffffffffffffff82111561238d5761238c612974565b5b602082029050602081019050919050565b600067ffffffffffffffff8211156123b9576123b8612974565b5b602082029050602081019050919050565b600067ffffffffffffffff8211156123e5576123e4612974565b5b6123ee826129b6565b9050602081019050919050565b6000819050602082019050919050565b60008190508160005260206000209050919050565b6000819050602082019050919050565b60008190508160005260206000209050919050565b600081519050919050565b600081549050919050565b600081519050919050565b600081549050919050565b6000602082019050919050565b6000600282019050919050565b6000602082019050919050565b6000600182019050919050565b600082825260208201905092915050565b600082825260208201905092915050565b600082825260208201905092915050565b600082825260208201905092915050565b60006124f48261272d565b91506124ff8361272d565b9250817f7fffffffffffffffffffffffffffffffffffffffffffffffffffffffffffffff0383136000831215161561253a576125396128e7565b5b817f8000000000000000000000000000000000000000000000000000000000000000038312600083121615612572576125716128e7565b5b828201905092915050565b600061258882612757565b915061259383612757565b9250827fffffffffffffffffffffffffffffffffffffffffffffffffffffffffffffffff038211156125c8576125c76128e7565b5b828201905092915050565b60006125de8261272d565b91506125e98361272d565b9250826125f9576125f8612916565b5b600160000383147f800000000000000000000000000000000000000000000000000000000000000083141615612632576126316128e7565b5b828205905092915050565b60006126488261272d565b91506126538361272d565b9250827f80000000000000000000000000000000000000000000000000000000000000000182126000841215161561268e5761268d6128e7565b5b827f7fffffffffffffffffffffffffffffffffffffffffffffffffffffffffffffff0182136000841216156126c6576126c56128e7565b5b828203905092915050565b60006126dc82612757565b91506126e783612757565b9250828210156126fa576126f96128e7565b5b828203905092915050565b6000819050919050565b600061271a82612737565b9050919050565b60008115159050919050565b6000819050919050565b600073ffffffffffffffffffffffffffffffffffffffff82169050919050565b6000819050919050565b600060ff82169050919050565b600061277982612761565b9050919050565b82818337600083830152505050565b600061279a8261272d565b91507f80000000000000000000000000000000000000000000000000000000000000008214156127cd576127cc6128e7565b5b600182039050919050565b600060028204905060018216806127f057607f821691505b6020821081141561280457612803612945565b5b50919050565b600061281d612818836129c7565b612705565b9050919050565b61282d826129b6565b810181811067ffffffffffffffff8211171561284c5761284b612974565b5b80604052505050565b60006128608261272d565b91507f7fffffffffffffffffffffffffffffffffffffffffffffffffffffffffffffff821415612893576128926128e7565b5b600182019050919050565b60006128a982612757565b91507fffffffffffffffffffffffffffffffffffffffffffffffffffffffffffffffff8214156128dc576128db6128e7565b5b600182019050919050565b7f4e487b7100000000000000000000000000000000000000000000000000000000600052601160045260246000fd5b7f4e487b7100000000000000000000000000000000000000000000000000000000600052601260045260246000fd5b7f4e487b7100000000000000000000000000000000000000000000000000000000600052602260045260246000fd5b7f4e487b7100000000000000000000000000000000000000000000000000000000600052604160045260246000fd5b60006129af825461280a565b9050919050565b6000601f19601f8301169050919050565b60008160001c9050919050565b7f5468697320706f6c6c20697320636c6f73656420616c72656164790000000000600082015250565b7f54686520617272617973206d7573742068617665207468652073616d65206c6560008201527f6e67746800000000000000000000000000000000000000000000000000000000602082015250565b7f4f776e61626c653a206e6577206f776e657220697320746865207a65726f206160008201527f6464726573730000000000000000000000000000000000000000000000000000602082015250565b7f566f74696e67206d75737420626520666f72206f6e6c79206f6e652063616e6460008201527f69646174652e0000000000000000000000000000000000000000000000000000602082015250565b7f5468697320706f6c6c20697320636c6f7365642e204e6f206d6f726520766f7460008201527f657320616c6c6f77656400000000000000000000000000000000000000000000602082015250565b7f43616e64696461746520646f65736e27742065786973742e0000000000000000600082015250565b7f496e697469616c697a61626c653a20636f6e747261637420697320616c72656160008201527f647920696e697469616c697a6564000000000000000000000000000000000000602082015250565b7f4f776e61626c653a2063616c6c6572206973206e6f7420746865206f776e6572600082015250565b7f546865206475726174696f6e206f662074686520706f6c6c206d75737420626560008201527f2067726561746572207468616e207a65726f0000000000000000000000000000602082015250565b7f546865206c697374206f662063616e646964617465732073686f756c6420686160008201527f7665206174206c656173742074776f20656c656d656e74730000000000000000602082015250565b7f496e697469616c697a61626c653a20636f6e7472616374206973206e6f74206960008201527f6e697469616c697a696e67000000000000000000000000000000000000000000602082015250565b7f5468697320706f6c6c206973206e6f7420636c6f736564207965742e00000000600082015250565b612cf98161270f565b8114612d0457600080fd5b50565b612d1081612757565b8114612d1b57600080fd5b5056fea26469706673582212209555ebf78aa50000d3eb620ac5d01e5276e504ab6c44c919eb301ab294b1983064736f6c63430008030033",
  "linkReferences": {},
  "deployedLinkReferences": {}
}