{
  "_format": "hh-sol-artifact-1",
  "contractName": "CondorcetVoting",
  "sourceName": "contracts/CondorcetVoting.sol",
  "abi": [
    {
      "anonymous": false,
      "inputs": [
        {
          "indexed": false,
          "internalType": "uint8",
          "name": "version",
          "type": "uint8"
        }
      ],
      "name": "Initialized",
      "type": "event"
    },
    {
      "anonymous": false,
      "inputs": [
        {
          "indexed": true,
          "internalType": "address",
          "name": "previousOwner",
          "type": "address"
        },
        {
          "indexed": true,
          "internalType": "address",
          "name": "newOwner",
          "type": "address"
        }
      ],
      "name": "OwnershipTransferred",
      "type": "event"
    },
    {
      "anonymous": false,
      "inputs": [
        {
          "components": [
            {
              "internalType": "uint256",
              "name": "place",
              "type": "uint256"
            },
            {
              "internalType": "uint256[]",
              "name": "candidates",
              "type": "uint256[]"
            }
          ],
          "indexed": false,
          "internalType": "struct Votable.Group[]",
          "name": "winners",
          "type": "tuple[]"
        }
      ],
      "name": "PollClosed",
      "type": "event"
    },
    {
      "inputs": [],
      "name": "closePoll",
      "outputs": [],
      "stateMutability": "nonpayable",
      "type": "function"
    },
    {
      "inputs": [],
      "name": "expire",
      "outputs": [
        {
          "internalType": "uint256",
          "name": "",
          "type": "uint256"
        }
      ],
      "stateMutability": "view",
      "type": "function"
    },
    {
      "inputs": [],
      "name": "finished",
      "outputs": [
        {
          "internalType": "bool",
          "name": "",
          "type": "bool"
        }
      ],
      "stateMutability": "view",
      "type": "function"
    },
    {
      "inputs": [
        {
          "internalType": "string[]",
          "name": "candidates",
          "type": "string[]"
        },
        {
          "internalType": "uint256",
          "name": "newDuration",
          "type": "uint256"
        }
      ],
      "name": "initialize",
      "outputs": [],
      "stateMutability": "nonpayable",
      "type": "function"
    },
    {
      "inputs": [],
      "name": "owner",
      "outputs": [
        {
          "internalType": "address",
          "name": "",
          "type": "address"
        }
      ],
      "stateMutability": "view",
      "type": "function"
    },
    {
      "inputs": [],
      "name": "renounceOwnership",
      "outputs": [],
      "stateMutability": "nonpayable",
      "type": "function"
    },
    {
      "inputs": [
        {
          "internalType": "address",
          "name": "newOwner",
          "type": "address"
        }
      ],
      "name": "transferOwnership",
      "outputs": [],
      "stateMutability": "nonpayable",
      "type": "function"
    },
    {
      "inputs": [
        {
          "internalType": "uint256[]",
          "name": "userRanking",
          "type": "uint256[]"
        }
      ],
      "name": "vote",
      "outputs": [],
      "stateMutability": "nonpayable",
      "type": "function"
    },
    {
      "inputs": [],
      "name": "votes",
      "outputs": [
        {
          "internalType": "uint256[]",
          "name": "",
          "type": "uint256[]"
        }
      ],
      "stateMutability": "view",
      "type": "function"
    },
    {
      "inputs": [
        {
          "internalType": "uint256",
          "name": "candidateIndex",
          "type": "uint256"
        }
      ],
      "name": "votesOf",
      "outputs": [
        {
          "internalType": "uint256",
          "name": "",
          "type": "uint256"
        }
      ],
      "stateMutability": "view",
      "type": "function"
    },
    {
      "inputs": [],
      "name": "winners",
      "outputs": [
        {
          "components": [
            {
              "internalType": "uint256",
              "name": "place",
              "type": "uint256"
            },
            {
              "internalType": "uint256[]",
              "name": "candidates",
              "type": "uint256[]"
            }
          ],
          "internalType": "struct Votable.Group[]",
          "name": "",
          "type": "tuple[]"
        }
      ],
      "stateMutability": "view",
      "type": "function"
    }
  ],
  "bytecode": "0x608060405234801561001057600080fd5b50612853806100206000396000f3fe608060405234801561001057600080fd5b50600436106100a95760003560e01c8063a49a4a8711610071578063a49a4a8714610142578063bef4876b1461015e578063ce11f2bb1461017c578063e168c3ec14610198578063ed8c2aed146101b6578063f2fde38b146101c0576100a9565b80636530735e146100ae578063715018a6146100de57806379599f96146100e85780638da5cb5b14610106578063a487bcd814610124575b600080fd5b6100c860048036038101906100c39190611a01565b6101dc565b6040516100d591906120dd565b60405180910390f35b6100e6610271565b005b6100f06102f9565b6040516100fd91906120dd565b60405180910390f35b61010e610303565b60405161011b9190611ec6565b60405180910390f35b61012c61032d565b6040516101399190611ee1565b60405180910390f35b61015c6004803603810190610157919061196c565b610433565b005b6101666104cb565b6040516101739190611f47565b60405180910390f35b610196600480360381019061019191906119c0565b6104e2565b005b6101a0610700565b6040516101ad9190611f25565b60405180910390f35b6101be610758565b005b6101da60048036038101906101d59190611943565b610806565b005b60006065805490508210610225576040517f08c379a000000000000000000000000000000000000000000000000000000000815260040161021c90611fdd565b60405180910390fd5b6066828154811061025f577f4e487b7100000000000000000000000000000000000000000000000000000000600052603260045260246000fd5b90600052602060002001549050919050565b6102796108fe565b73ffffffffffffffffffffffffffffffffffffffff16610297610303565b73ffffffffffffffffffffffffffffffffffffffff16146102ed576040517f08c379a00000000000000000000000000000000000000000000000000000000081526004016102e49061203d565b60405180910390fd5b6102f76000610906565b565b6000606854905090565b6000603360009054906101000a900473ffffffffffffffffffffffffffffffffffffffff16905090565b6060436068541115610374576040517f08c379a000000000000000000000000000000000000000000000000000000000815260040161036b906120bd565b60405180910390fd5b6067805480602002602001604051908101604052809291908181526020016000905b8282101561042a5783829060005260206000209060020201604051806040016040529081600082015481526020016001820180548060200260200160405190810160405280929190818152602001828054801561041257602002820191906000526020600020905b8154815260200190600101908083116103fe575b50505050508152505081526020019060010190610396565b50505050905090565b600061043f60016109cc565b90508015610463576001600060016101000a81548160ff0219169083151502179055505b61046d8383610abc565b80156104c65760008060016101000a81548160ff0219169083151502179055507f7f26b83ff96e1f2b6a682f133852f6798a09c465da95921460cefb384740249860016040516104bd9190611f62565b60405180910390a15b505050565b6000606960009054906101000a900460ff16905090565b436068541015610527576040517f08c379a000000000000000000000000000000000000000000000000000000000815260040161051e90611fbd565b60405180910390fd5b60658054905081511461056f576040517f08c379a00000000000000000000000000000000000000000000000000000000081526004016105669061201d565b60405180910390fd5b60005b8151811015610615576065805490508282815181106105ba577f4e487b7100000000000000000000000000000000000000000000000000000000600052603260045260246000fd5b602002602001015110610602576040517f08c379a00000000000000000000000000000000000000000000000000000000081526004016105f990611fdd565b60405180910390fd5b808061060d9061241b565b915050610572565b50600061062c33606a610ae390919063ffffffff16565b90508060000160009054906101000a900460ff16156106a7576106a28160010180548060200260200160405190810160405280929190818152602001828054801561069657602002820191906000526020600020905b815481526020019060010190808311610682575b50505050506000610b2e565b6106c5565b60018160000160006101000a81548160ff0219169083151502179055505b6106d0826001610b2e565b818160010190805190602001906106e8929190611521565b50504360685414156106fd576106fc610758565b5b50565b6060606680548060200260200160405190810160405280929190818152602001828054801561074e57602002820191906000526020600020905b81548152602001906001019080831161073a575b5050505050905090565b606960009054906101000a900460ff16156107a8576040517f08c379a000000000000000000000000000000000000000000000000000000000815260040161079f90611f7d565b60405180910390fd5b6001606960006101000a81548160ff0219169083151502179055506107cb610d2d565b507f0de2655689350229b8da3d42d4ef4fa951fae80dc07d54c41504f940fed5664e60676040516107fc9190611f03565b60405180910390a1565b61080e6108fe565b73ffffffffffffffffffffffffffffffffffffffff1661082c610303565b73ffffffffffffffffffffffffffffffffffffffff1614610882576040517f08c379a00000000000000000000000000000000000000000000000000000000081526004016108799061203d565b60405180910390fd5b600073ffffffffffffffffffffffffffffffffffffffff168173ffffffffffffffffffffffffffffffffffffffff1614156108f2576040517f08c379a00000000000000000000000000000000000000000000000000000000081526004016108e990611f9d565b60405180910390fd5b6108fb81610906565b50565b600033905090565b6000603360009054906101000a900473ffffffffffffffffffffffffffffffffffffffff16905081603360006101000a81548173ffffffffffffffffffffffffffffffffffffffff021916908373ffffffffffffffffffffffffffffffffffffffff1602179055508173ffffffffffffffffffffffffffffffffffffffff168173ffffffffffffffffffffffffffffffffffffffff167f8be0079c531659141344cd1fd0a4f28419497f9722a3daafe3b4186f6b6457e060405160405180910390a35050565b60008060019054906101000a900460ff1615610a435760018260ff161480156109fb57506109f930611131565b155b610a3a576040517f08c379a0000000000000000000000000000000000000000000000000000000008152600401610a3190611ffd565b60405180910390fd5b60009050610ab7565b8160ff1660008054906101000a900460ff1660ff1610610a98576040517f08c379a0000000000000000000000000000000000000000000000000000000008152600401610a8f90611ffd565b60405180910390fd5b816000806101000a81548160ff021916908360ff160217905550600190505b919050565b610ac4611154565b610acc6111a5565b610ad68282611206565b610adf8261135f565b5050565b60008260020160008373ffffffffffffffffffffffffffffffffffffffff1673ffffffffffffffffffffffffffffffffffffffff168152602001908152602001600020905092915050565b60005b8251811015610d285760005b8351811015610d1a57818114610d0d57838181518110610b86577f4e487b7100000000000000000000000000000000000000000000000000000000600052603260045260246000fd5b6020026020010151848381518110610bc7577f4e487b7100000000000000000000000000000000000000000000000000000000600052603260045260246000fd5b60200260200101511015610d0c578215610c7557600160998381548110610c17577f4e487b7100000000000000000000000000000000000000000000000000000000600052603260045260246000fd5b906000526020600020018281548110610c59577f4e487b7100000000000000000000000000000000000000000000000000000000600052603260045260246000fd5b9060005260206000200160008282540192505081905550610d0b565b600160998381548110610cb1577f4e487b7100000000000000000000000000000000000000000000000000000000600052603260045260246000fd5b906000526020600020018281548110610cf3577f4e487b7100000000000000000000000000000000000000000000000000000000600052603260045260246000fd5b90600052602060002001600082825403925050819055505b5b5b8080600101915050610b3d565b508080600101915050610b31565b505050565b6000610d3761156e565b600060658054905067ffffffffffffffff811115610d7e577f4e487b7100000000000000000000000000000000000000000000000000000000600052604160045260246000fd5b604051908082528060200260200182016040528015610dac5781602001602082028036833780820191505090505b5090506000805b609980549050811015610f95576000805b609980549050811015610f0f57808314610efc5760998181548110610e12577f4e487b7100000000000000000000000000000000000000000000000000000000600052603260045260246000fd5b906000526020600020018381548110610e54577f4e487b7100000000000000000000000000000000000000000000000000000000600052603260045260246000fd5b906000526020600020015460998481548110610e99577f4e487b7100000000000000000000000000000000000000000000000000000000600052603260045260246000fd5b906000526020600020018281548110610edb577f4e487b7100000000000000000000000000000000000000000000000000000000600052603260045260246000fd5b90600052602060002001541115610efb578180610ef79061241b565b9250505b5b8080610f079061241b565b915050610dc4565b506001609980549050610f2291906122ea565b811415610f815781848480610f369061241b565b955081518110610f6f577f4e487b7100000000000000000000000000000000000000000000000000000000600052603260045260246000fd5b60200260200101818152505050610f95565b508080610f8d9061241b565b915050610db3565b5060008111156111205760018360000181815250508067ffffffffffffffff811115610fea577f4e487b7100000000000000000000000000000000000000000000000000000000600052604160045260246000fd5b6040519080825280602002602001820160405280156110185781602001602082028036833780820191505090505b50836020018190525060005b818110156110c957828181518110611065577f4e487b7100000000000000000000000000000000000000000000000000000000600052603260045260246000fd5b6020026020010151846020015182815181106110aa577f4e487b7100000000000000000000000000000000000000000000000000000000600052603260045260246000fd5b60200260200101818152505080806110c19061241b565b915050611024565b50606783908060018154018082558091505060019003906000526020600020906002020160009091909190915060008201518160000155602082015181600101908051906020019061111c929190611521565b5050505b600060678054905011935050505090565b6000808273ffffffffffffffffffffffffffffffffffffffff163b119050919050565b600060019054906101000a900460ff166111a3576040517f08c379a000000000000000000000000000000000000000000000000000000000815260040161119a9061209d565b60405180910390fd5b565b600060019054906101000a900460ff166111f4576040517f08c379a00000000000000000000000000000000000000000000000000000000081526004016111eb9061209d565b60405180910390fd5b6112046111ff6108fe565b610906565b565b600182511161124a576040517f08c379a00000000000000000000000000000000000000000000000000000000081526004016112419061207d565b60405180910390fd5b6000811161128d576040517f08c379a00000000000000000000000000000000000000000000000000000000081526004016112849061205d565b60405180910390fd5b81606590805190602001906112a3929190611588565b5080436112b09190612294565b60688190555060658054905067ffffffffffffffff8111156112fb577f4e487b7100000000000000000000000000000000000000000000000000000000600052604160045260246000fd5b6040519080825280602002602001820160405280156113295781602001602082028036833780820191505090505b506066908051906020019061133f929190611521565b506000606960006101000a81548160ff0219169083151502179055505050565b60018151116113a3576040517f08c379a000000000000000000000000000000000000000000000000000000000815260040161139a9061207d565b60405180910390fd5b600060658054905090508067ffffffffffffffff8111156113ed577f4e487b7100000000000000000000000000000000000000000000000000000000600052604160045260246000fd5b60405190808252806020026020018201604052801561142057816020015b606081526020019060019003908161140b5790505b50609990805190602001906114369291906115e8565b5060005b8181101561151c578167ffffffffffffffff811115611482577f4e487b7100000000000000000000000000000000000000000000000000000000600052604160045260246000fd5b6040519080825280602002602001820160405280156114b05781602001602082028036833780820191505090505b50609982815481106114eb577f4e487b7100000000000000000000000000000000000000000000000000000000600052603260045260246000fd5b906000526020600020019080519060200190611508929190611521565b5080806115149061241b565b91505061143a565b505050565b82805482825590600052602060002090810192821561155d579160200282015b8281111561155c578251825591602001919060010190611541565b5b50905061156a9190611648565b5090565b604051806040016040528060008152602001606081525090565b8280548282559060005260206000209081019282156115d7579160200282015b828111156115d65782518290805190602001906115c6929190611665565b50916020019190600101906115a8565b5b5090506115e491906116eb565b5090565b828054828255906000526020600020908101928215611637579160200282015b82811115611636578251829080519060200190611626929190611521565b5091602001919060010190611608565b5b509050611644919061170f565b5090565b5b80821115611661576000816000905550600101611649565b5090565b8280546116719061239e565b90600052602060002090601f01602090048101928261169357600085556116da565b82601f106116ac57805160ff19168380011785556116da565b828001600101855582156116da579182015b828111156116d95782518255916020019190600101906116be565b5b5090506116e79190611648565b5090565b5b8082111561170b57600081816117029190611733565b506001016116ec565b5090565b5b8082111561172f57600081816117269190611773565b50600101611710565b5090565b50805461173f9061239e565b6000825580601f106117515750611770565b601f01602090049060005260206000209081019061176f9190611648565b5b50565b50805460008255906000526020600020908101906117919190611648565b50565b60006117a76117a28461211d565b6120f8565b9050808382526020820190508260005b858110156117e757813585016117cd8882611904565b8452602084019350602083019250506001810190506117b7565b5050509392505050565b60006118046117ff84612149565b6120f8565b9050808382526020820190508285602086028201111561182357600080fd5b60005b858110156118535781611839888261192e565b845260208401935060208301925050600181019050611826565b5050509392505050565b600061187061186b84612175565b6120f8565b90508281526020810184848401111561188857600080fd5b61189384828561238f565b509392505050565b6000813590506118aa816127ef565b92915050565b600082601f8301126118c157600080fd5b81356118d1848260208601611794565b91505092915050565b600082601f8301126118eb57600080fd5b81356118fb8482602086016117f1565b91505092915050565b600082601f83011261191557600080fd5b813561192584826020860161185d565b91505092915050565b60008135905061193d81612806565b92915050565b60006020828403121561195557600080fd5b60006119638482850161189b565b91505092915050565b6000806040838503121561197f57600080fd5b600083013567ffffffffffffffff81111561199957600080fd5b6119a5858286016118b0565b92505060206119b68582860161192e565b9150509250929050565b6000602082840312156119d257600080fd5b600082013567ffffffffffffffff8111156119ec57600080fd5b6119f8848285016118da565b91505092915050565b600060208284031215611a1357600080fd5b6000611a218482850161192e565b91505092915050565b6000611a368383611e22565b905092915050565b6000611a4a8383611e5f565b905092915050565b6000611a5e8383611ea8565b60208301905092915050565b611a7381612328565b82525050565b6000611a84826121f0565b611a8e8185612250565b935083602082028501611aa0856121a6565b8060005b85811015611adc5784840389528151611abd8582611a2a565b9450611ac88361221c565b925060208a01995050600181019050611aa4565b50829750879550505050505092915050565b6000611af9826121fb565b611b038185612250565b935083602082028501611b15856121b6565b8060005b85811015611b5057848403895281611b318582611a3e565b9450611b3c83612229565b925060208a01995050600181019050611b19565b50829750879550505050505092915050565b6000611b6d82612206565b611b778185612261565b9350611b82836121cb565b8060005b83811015611bb3578151611b9a8882611a52565b9750611ba583612236565b925050600181019050611b86565b5085935050505092915050565b6000611bcb82612206565b611bd58185612272565b9350611be0836121cb565b8060005b83811015611c11578151611bf88882611a52565b9750611c0383612236565b925050600181019050611be4565b5085935050505092915050565b6000611c2982612211565b611c338185612261565b9350611c3e836121db565b8060005b83811015611c7657611c53826124f1565b611c5d8882611a52565b9750611c6883612243565b925050600181019050611c42565b5085935050505092915050565b611c8c8161233a565b82525050565b611c9b8161237d565b82525050565b6000611cae601b83612283565b9150611cb982612522565b602082019050919050565b6000611cd1602683612283565b9150611cdc8261254b565b604082019050919050565b6000611cf4602a83612283565b9150611cff8261259a565b604082019050919050565b6000611d17601883612283565b9150611d22826125e9565b602082019050919050565b6000611d3a602e83612283565b9150611d4582612612565b604082019050919050565b6000611d5d602983612283565b9150611d6882612661565b604082019050919050565b6000611d80602083612283565b9150611d8b826126b0565b602082019050919050565b6000611da3603283612283565b9150611dae826126d9565b604082019050919050565b6000611dc6603883612283565b9150611dd182612728565b604082019050919050565b6000611de9602b83612283565b9150611df482612777565b604082019050919050565b6000611e0c601c83612283565b9150611e17826127c6565b602082019050919050565b6000604083016000830151611e3a6000860182611ea8565b5060208301518482036020860152611e528282611b62565b9150508091505092915050565b6000604083016000808401549050611e76816123d0565b611e836000870182611ea8565b50600184018583036020870152611e9a8382611c1e565b925050819250505092915050565b611eb181612366565b82525050565b611ec081612366565b82525050565b6000602082019050611edb6000830184611a6a565b92915050565b60006020820190508181036000830152611efb8184611a79565b905092915050565b60006020820190508181036000830152611f1d8184611aee565b905092915050565b60006020820190508181036000830152611f3f8184611bc0565b905092915050565b6000602082019050611f5c6000830184611c83565b92915050565b6000602082019050611f776000830184611c92565b92915050565b60006020820190508181036000830152611f9681611ca1565b9050919050565b60006020820190508181036000830152611fb681611cc4565b9050919050565b60006020820190508181036000830152611fd681611ce7565b9050919050565b60006020820190508181036000830152611ff681611d0a565b9050919050565b6000602082019050818103600083015261201681611d2d565b9050919050565b6000602082019050818103600083015261203681611d50565b9050919050565b6000602082019050818103600083015261205681611d73565b9050919050565b6000602082019050818103600083015261207681611d96565b9050919050565b6000602082019050818103600083015261209681611db9565b9050919050565b600060208201905081810360008301526120b681611ddc565b9050919050565b600060208201905081810360008301526120d681611dff565b9050919050565b60006020820190506120f26000830184611eb7565b92915050565b6000612102612113565b905061210e82826123ea565b919050565b6000604051905090565b600067ffffffffffffffff821115612138576121376124c2565b5b602082029050602081019050919050565b600067ffffffffffffffff821115612164576121636124c2565b5b602082029050602081019050919050565b600067ffffffffffffffff8211156121905761218f6124c2565b5b61219982612504565b9050602081019050919050565b6000819050602082019050919050565b60008190508160005260206000209050919050565b6000819050602082019050919050565b60008190508160005260206000209050919050565b600081519050919050565b600081549050919050565b600081519050919050565b600081549050919050565b6000602082019050919050565b6000600282019050919050565b6000602082019050919050565b6000600182019050919050565b600082825260208201905092915050565b600082825260208201905092915050565b600082825260208201905092915050565b600082825260208201905092915050565b600061229f82612366565b91506122aa83612366565b9250827fffffffffffffffffffffffffffffffffffffffffffffffffffffffffffffffff038211156122df576122de612464565b5b828201905092915050565b60006122f582612366565b915061230083612366565b92508282101561231357612312612464565b5b828203905092915050565b6000819050919050565b600061233382612346565b9050919050565b60008115159050919050565b600073ffffffffffffffffffffffffffffffffffffffff82169050919050565b6000819050919050565b600060ff82169050919050565b600061238882612370565b9050919050565b82818337600083830152505050565b600060028204905060018216806123b657607f821691505b602082108114156123ca576123c9612493565b5b50919050565b60006123e36123de83612515565b61231e565b9050919050565b6123f382612504565b810181811067ffffffffffffffff82111715612412576124116124c2565b5b80604052505050565b600061242682612366565b91507fffffffffffffffffffffffffffffffffffffffffffffffffffffffffffffffff82141561245957612458612464565b5b600182019050919050565b7f4e487b7100000000000000000000000000000000000000000000000000000000600052601160045260246000fd5b7f4e487b7100000000000000000000000000000000000000000000000000000000600052602260045260246000fd5b7f4e487b7100000000000000000000000000000000000000000000000000000000600052604160045260246000fd5b60006124fd82546123d0565b9050919050565b6000601f19601f8301169050919050565b60008160001c9050919050565b7f5468697320706f6c6c20697320636c6f73656420616c72656164790000000000600082015250565b7f4f776e61626c653a206e6577206f776e657220697320746865207a65726f206160008201527f6464726573730000000000000000000000000000000000000000000000000000602082015250565b7f5468697320706f6c6c20697320636c6f7365642e204e6f206d6f726520766f7460008201527f657320616c6c6f77656400000000000000000000000000000000000000000000602082015250565b7f43616e64696461746520646f65736e27742065786973742e0000000000000000600082015250565b7f496e697469616c697a61626c653a20636f6e747261637420697320616c72656160008201527f647920696e697469616c697a6564000000000000000000000000000000000000602082015250565b7f566f74696e67206d7573742062652063617374656420666f7220616c6c20636160008201527f6e646964617465732e0000000000000000000000000000000000000000000000602082015250565b7f4f776e61626c653a2063616c6c6572206973206e6f7420746865206f776e6572600082015250565b7f546865206475726174696f6e206f662074686520706f6c6c206d75737420626560008201527f2067726561746572207468616e207a65726f0000000000000000000000000000602082015250565b7f546865206c697374206f662063616e646964617465732073686f756c6420686160008201527f7665206174206c656173742074776f20656c656d656e74730000000000000000602082015250565b7f496e697469616c697a61626c653a20636f6e7472616374206973206e6f74206960008201527f6e697469616c697a696e67000000000000000000000000000000000000000000602082015250565b7f5468697320706f6c6c206973206e6f7420636c6f736564207965742e00000000600082015250565b6127f881612328565b811461280357600080fd5b50565b61280f81612366565b811461281a57600080fd5b5056fea264697066735822122011a6b9610b8a13af6b57843ceee58c5e08d26153e395eeb36713b9612b42b05064736f6c63430008030033",
  "linkReferences": {},
  "deployedLinkReferences": {}
}